:02000002D0002C
:1040000000400D0000CD0D00000006000C00050171
:084010000401DE0500000000C0
:04401800A4BB0D0038
:1040200009480A49884208B505D0094A824202D0A7
:10403000121A05F019FC0748074A0021121A05F068
:104040001EFC014808BD00BF18E00320D4CB0D00C2
:104050001CE103201CE10320F0E7032070B503F00E
:10406000EDF9074C074BE41AA40800251E46A542AB
:1040700004D056F8253098470135F8E770BD00BFE9
:10408000CCCB0D0064CB0D0000F088B808B500F073
:10409000F5FABDE8084003F093B902F035BC02F030
:1040A00033BC02F039BC02F037BC0078B0FA80F0C3
:1040B00040097047012303707047000073B5104C2E
:1040C000104E05461F22204605F062FC03F09EFDBF
:1040D0002B4600940C4A012103F03DF80B4B21467E
:1040E0000125202230461D7005F052FC03F08EFDA4
:1040F000074A3346294602B0BDE8704003F02BB8AA
:10410000CEE10320ACE10320B8BB0D00CDE10320DC
:10411000E4BB0D0010B5036804469B689847A3688C
:10412000013BA3602BB923682046DB68BDE8104043
:10413000184710BD10B5064B03600446806928B1CE
:104140004368013B43600BB9FFF7E4FF204610BD15
:1041500038C70D0010B50446FFF7ECFF204610BD30
:1041600010B50446FFF7E6FF20461C2104F06CFB67
:10417000204610BD70B5064602F09AF9064C054679
:1041800002F096F9401BB04205D202F091F920608E
:1041900002F082FBF4E770BD08E703202DE9F0414F
:1041A0008AB003F033FD00244FF4E13103F022FD27
:1041B000012322466D49019400946D4802F08CFB66
:1041C00040F6B830FFF7D6FF6A4B69491B788DF887
:1041D000003008A83C23224603F09EFA099828B133
:1041E0004368013B43600BB9FFF794FF40F6B830DA
:1041F000FFF7C0FFB0EE000A03F030F80121042001
:1042000004F08AFA0121052004F086FA0121062033
:1042100004F082FA0121082004F07EFA012107202F
:1042200004F07AFA0121122004F076FA0121132019
:1042300004F072FA0021032004F06EFA002102203B
:1042400004F06AFA0021212004F066FA0121072017
:1042500004F073FA0121082004F06FFA012106200E
:1042600004F06BFA0021042004F067FA0021052015
:1042700004F063FA0021032004F05FFA0021022019
:1042800004F05BFA0021212004F046FA3A4A3B4947
:104290003B483C4E3C4F3D4C3D4D01F027F93D4ADB
:1042A0003649374886ED000A01F020F93A4A334989
:1042B000334887ED000A01F019F9384A2F49304890
:1042C00084ED000A01F012F985ED000A03F09EFC6E
:1042D0008046286804F034FECDE90601206804F029
:1042E0002FFECDE90401386804F02AFECDE9020171
:1042F000306804F025FE2A4ACDE90001002140463D
:1043000002F029FF97ED007AD6ED007A254B009355
:10431000BDEEC77AFDEEE77A17EE102A17EE901A77
:104320000023214800F0D0FBD4ED007A95ED007A0F
:104330001E4B0093BDEEC77AFDEEE77A17EE102A0A
:1043400017EE901A0023184800F0BEFB01210C481C
:1043500001F0E2F80022019200920123144915486D
:1043600002F0BAFA0AB0BDE8F08100BFBD400D000E
:1043700016BC0D0028E103202BBC0D00ACE103208E
:1043800058E1032024E1032020E103202CE1032055
:1043900054E103203BBC0D004DBC0D005EBC0D0084
:1043A00071BC0D0005440D00F0E1032041440D00F7
:1043B00081450D0095BC0D0010B5322002F0A4FA25
:1043C000014604460B4801F011F90B4B0B491A78D2
:1043D000084801F087F820B103F018FC084902F002
:1043E00090FE204602F098FA4FF4FA60BDE81040C3
:1043F00002F0A0BF58E1032050E10320ACE103200C
:10440000A2BC0D0008B503F001FC0A4902F079FED8
:104410000021082004F091F90121062004F08DF913
:10442000B7EE000A0449054801F053F8BDE808401A
:10443000FFF7C2BFBCBC0D0018E0032058E1032009
:1044400008B503F0E3FB0B4A002102F084FE0121D2
:10445000082004F072F90021062004F06EF99FEDA7
:10446000060A0649064801F034F8BDE80840FFF79F
:10447000A3BF00BFD2BC0D000000000018E0032065
:1044800058E10320F0EE087AB4EE670AF1EE10FA74
:104490000BD0F7EE007AB4EE670AF1EE10FAB0EE48
:1044A000000A08BFB0EE670A7047B0EE670A7047AF
:1044B00008B52DED028B1D4B93ED008A02F012FF23
:1044C00007EE900AF8EEE77AB4EEE78AF1EE10FA1A
:1044D0000DD502F007FF164B07EE900AB8EEE77A0B
:1044E000D3ED007AB4EEE77AF1EE10FA0AD40121A6
:1044F000082004F022F90021062004F01EF99FEDA7
:104500000D0A09E00021082004F017F90121062016
:1045100004F013F9B7EE000A0749084800F0D9FF84
:10452000BDEC028BBDE80840FFF746BF24E1032045
:104530002CE103200000000018E0032058E10320D4
:104540002DE9F04107460C4615462AB90368C9B261
:104550009B68BDE8F0411847002907DA0A2A05D10F
:104560002D2102F0BFFD6142064601E021460026F2
:10457000EAB2384602F0CFFD3044BDE8F0810000D9
:10458000F7B5204C2368013323600D46064603F03F
:104590003DFB0A2221680746FFF7D2FF384602F0AA
:1045A000A4FD03F033FB314602F098FD03F02EFB2F
:1045B000154902F093FDE5B1284605F047F851ECA6
:1045C000100B04F0F3FF00EE100AFFF75BFF0F4C37
:1045D00084ED000A03F01AFB0546206804F0B0FCE5
:1045E0000B4ACDE900010021284602F0B4FD03B0DA
:1045F000F0BD03F00BFB074903B0BDE8F04002F04B
:1046000080BD00BFA4E10320EABC0D00A8E10320A7
:10461000F3BC0D00F7BC0D0010B5044603F0F6FA2C
:10462000084902F05BFD092C04DC03F0EFFA3021AD
:1046300002F058FD03F0EAFA0A222146FFF780FF54
:1046400010BD00BF2CBF0D0010B503F0DFFA04460B
:1046500002F048FE0A2201462046FFF771FF02F0F1
:104660004BFEFFF7D9FF02F051FEFFF7D5FF03F035
:10467000CDFABDE8104002F038BD000037B5FFF7B5
:10468000E3FF234B1A781C460AB9FFF711FF0125F7
:104690004FF47A711F48257000F0C8F91E4BD3ED16
:1046A000007AB0EE087AF4EE477AF1EE10FA1C4682
:1046B00001D1294615E0B7EE007AF4EE477AF1EE23
:1046C00010FA06D12946122004F037F800211320F1
:1046D0000CE0B0EE007AF4EE477AF1EE10FA07D172
:1046E0000021132004F029F80021122004F025F8FD
:1046F00003F08CFA0546206804F022FC074ACDE955
:1047000000010021284602F026FD03B030BD00BFA5
:10471000CCE10320F0E10320A8E10320FCBC0D0064
:10472000194B70B50024194D1C70194B194E0122FC
:104730001A7001F07DFE284603F0CCFE05F11C0046
:1047400003F0A6F9324614496C6328462C8704F01E
:104750006DF8124B1D60124D5C609C60DC601C614A
:104760005C611C835C831C775C7701F0A1FE2246B0
:104770000C49284600F080FE324628460A49BDE82A
:10478000704004F053B800BF28E1032068E1032023
:1047900050E103201CE1032055410D0030E10320CE
:1047A00058E1032011BD0D0095540D00027B02F06D
:1047B000CF026FF303020273002282604260026044
:1047C000704700002DE9F04743680446002B00F0D5
:1047D0008880037BDB0640F1848002F07CFD237B34
:1047E000DFF8108103F10E02D8F8005002F00F023A
:1047F000022A05446BD8A268954268DB03F00F02D9
:10480000022A01D1636814E0032A17D1666802F016
:1048100062FDD8F8003061681844354BB0FBF3F006
:1048200003FB0060A842B5FBF3F204D802FB03339C
:104830000B44A3604BE003FB0213FAE7042A43D1C5
:10484000D4F804A02A4E02F046FDD8F80030C7186C
:1048500002F041FDD8F800201044B0FBF6F906FB49
:10486000190902F038FDD8F800200AEB07031044BC
:104870000722B0FBF6F00430B0FBF2F1C1EBC1014E
:10488000C9EB0303401A06FB1030A8426168B5FB70
:10489000F6F30ED801F5132101F5286106FB03118B
:1048A0000433B3FBF2F2C2EBC2029A1A06FB1213F4
:1048B000BFE706FB03110433B3FBF2F2C2EBC20203
:1048C0009B1A06FB1313B4E76FF304132373237BC4
:1048D00003F00F03012B08D163681D44A560BDE8F8
:1048E000F087237B6FF304132373BDE8F08700BFC9
:1048F00080510100C0E30320052907D800EB011017
:10490000007B10F00F0018BF012070470020704797
:1049100010B502460C46FFF7EFFF98B10901531896
:104920005B681BB15358003318BF012302EB04101E
:1049300000F10802117963F304111171BDE8104010
:10494000FFF740BF10BD08B50346FFF7D5FF28B1FC
:1049500003EB01110B7B6FF304130B7308BD10B550
:104960000B460446FFF7C8FF68B104EB01111B01B9
:104970000A7B02F0EF026FF30302E0180A730022D1
:10498000E25042608A6010BD38B500F16001054612
:1049900003461846FFF70AFF10338B42F9D1002473
:1049A00085F86040E1B228460134FFF7D8FF062CB5
:1049B000F8D1284638BD0000F8B590F860300446BC
:1049C0008BBB0122184D80F8602080F8613094F88C
:1049D0006130052B20D804EB03131B7BDA0615D5B9
:1049E00002F079FC94F861102B680A010344A018C6
:1049F00000F108078668B34208DB3B79A6589B069E
:104A00000ED52046FFF7ABFF06B1B04794F86130F2
:104A1000013384F86130DAE7002384F86030F8BDB0
:104A2000FFF7D0FEF0E7F8BDC0E3032070B5044601
:104A30000E4601F03DFD054601F03AFD401BB04237
:104A400003D82046FFF7B8FFF6E770BD2DE9F84F11
:104A50009DF828909B46A9F10203022B0546884643
:104A600092460AD802F037FC154B1C68154B2044BF
:104A7000984202D8FF20BDE8F88F002005EB001611
:104A8000C4B2337B1A0717D11A466BF3451213468B
:104A900069F3030333739DF82C30C6F800A0C6F801
:104AA00004802146284613B1FFF732FF01E0FFF7EB
:104AB0004AFF2046BDE8F88F01300628DED1D9E74D
:104AC000C0E30320FFE1DF0137B53C2404FB0234DF
:104AD0004FF46165032201238DE80C0005FB0141C1
:104AE0000023069AFFF7B2FF03B030BD08B501F00E
:104AF0009FFC0248BDE80840FFF746BFF0E10320F5
:104B00000175704730B5064D056000250575836059
:104B100041F28835039B85614160C360026130BD0D
:104B200040BE0D002DE9F0410D461746064603F044
:104B30006DF81C4902F0E5FA00241B4803F086FCDE
:104B400068BB052C01D1BDE8F081337DC3B103F012
:104B50005DF8164902F0C2FA03F058F8294602F04F
:104B6000BDFA03F053F8124902F0B8FA03F04EF818
:104B70000A228046214602F0CEFA404602F0B5FAFB
:104B8000094803F0EFFB0023BAB22946064803F0B8
:104B9000EDFA4FF47A7002F0CDFB0134CDE7BDE8B9
:104BA000F08100BF35BD0D0054E203204DBD0D0066
:104BB00063BD0D0070B5054600240D4803F0EAFB07
:104BC000064610B9AB699C4201DB012070BD012093
:104BD00002F0B0FBAB6901349C42EEDB287D30B1C2
:104BE00003F014F8034902F08CFA304670BD70BD32
:104BF00054E2032077BD0D002DE9F843037D0646FE
:104C0000884615464BB103F001F8264902F079FABF
:104C100002F0FCFF244902F074FA002440F2BB29A0
:104C2000224803F0B7FB78B1204803F05CFA337DEB
:104C3000C7B22BB102F0EAFF036839469B68984778
:104C40002F5501344C45EBD1337D23B102F0DEFF0B
:104C5000174902F056FA00232B55164B98450DD1F3
:104C60001549284604F0A7FEDFED147A0028B7EEB8
:104C7000000A08BFB0EE670ABDE8F8837C21284629
:104C800004F02EFE50B1013004F0E0FC51EC100BAA
:104C900004F08CFC00EE100ABDE8F8839FED070AD3
:104CA000BDE8F883BEBD0D00AABD0D0054E203208F
:104CB000BDBD0D00C9BD0D00CEBD0D005F42A2CD32
:104CC00070B52DED028B044600230E461546416853
:104CD000494842F2343203F049FA204642F2343273
:104CE0006168FFF71FFF444803F069F9002877D097
:104CF000A168414802F0F2F940493F4802F0EEF95C
:104D0000E1683D4802F0EAF93D493B4802F0E6F926
:104D10003146394802F0E2F93A49374802F0DEF903
:104D20002946354802F0DAF93749334802F0D6F916
:104D3000237DB3B302F06AFF344902F0E2F902F0D6
:104D400065FF334902F0DDF902F060FFA16802F06F
:104D5000C5F902F05BFF294902F0C0F902F056FFE5
:104D6000E16802F0BBF902F051FF254902F0B6F903
:104D700002F04CFF314602F0B1F902F047FF214941
:104D800002F0ACF902F042FF294602F0A7F902F066
:104D90003DFF1D4902F0A2F902F038FF1D4902F063
:104DA000B0F92046FFF706FF28B9134803F0DAFAF6
:104DB0009FED190A1DE04FF42F7001F0A5FD174972
:104DC000024605462046FFF717FF0B48B0EE408A23
:104DD00003F0C8FA284601F09FFDB0EE480A08E04B
:104DE000237D002BE1D002F011FF0D4902F089F97B
:104DF000DBE7BDEC028B70BD54E20320D1BD0D009A
:104E0000D4BD0D002CBF0D006ABF0D00ECBD0D0020
:104E1000D6BD0D00EBBD0D005F42A2CDF1BD0D0072
:104E2000F4BD0D0070B52DED028B0446416822489B
:104E300042F234321D46002303F098F9204642F234
:104E400034326168FFF76EFE1B4803F0B8F830B3E8
:104E50002946194802F042F92046FFF7ABFE054605
:104E600020B9154803F07EFA002521E0642001F006
:104E70004BFD1249024606462046FFF7BDFE30466E
:104E8000B0EE408A01F048FDDFED0D7AB4EE678A9E
:104E9000F1EE10FAE5D0084803F064FA08E0237D4B
:104EA000002BDED002F0B2FE064902F02AF9D8E764
:104EB000BDEC028B284670BD54E20320C9BD0D0035
:104EC0005F42A2CD1ABE0D0010B5064C01F0B0FA3B
:104ED000204603F0FFFA2046034A0449BDE810408B
:104EE00003F0A4BC54E203201CE1032035410D0073
:104EF00038B504460120607494F91000E56800EBB1
:104F0000800045F8201094F91010E06801EB810151
:104F100000EB810181ED020A94F91010E06801EBC9
:104F2000810100EB81014A6094F91020E16802EBF5
:104F3000820201EB8202D36094F91030E26803EB45
:104F4000830302EB8303049A1A61237C01335BB26F
:104F50000A2B237408DDA37C23B102F057FE03491A
:104F600002F0CFF80A23237438BD00BF4CBE0D00F9
:104F700010B5C37C023B012B05D940680368BDE82E
:104F800010405B68184702F041FE034902F0B9F88F
:104F90009FED020A10BD00BF8BBE0D005F42A2CD87
:104FA0008174406803689B681847000030B510EEB4
:104FB000100A87B00C4603F0C3FF01AD02460B4652
:104FC0002846094901F0B0FC00221346A95C2029BB
:104FD00005D0E1540133DBB209B9E15402E00132FA
:104FE000142AF3D107B030BDCFBE0D002DE9F04338
:104FF0000C4689B005464949204604F089FC002644
:1050000095F910309E426ADA06EB8608EB684FEAA3
:1050100088073B440DF10C0993ED020A49462846E6
:10502000FFF7C4FFEB68CDF8009053F828303C49F7
:105030002246204601F078FCEB683B44DB686BB30A
:1050400022463849204601F06FFCEB683B441B695F
:10505000FBB10A2093FBF0F191FBF0FC00FB1C1C60
:1050600000FB1131C9B2642293FBF2F292FBF0FE15
:1050700000FB1E2200915FFA8CF3D2B22A4902A8EB
:1050800001F052FC02AB22462849204601F04CFCBC
:1050900004E022462649204601F046FCEB681F4406
:1050A0007B6823B122462349204601F03DFC22467D
:1050B0002149204601F038FC013695F91030F6B24E
:1050C0009E42224604DA1D49204601F02DFC97E756
:1050D0001949204601F028FC00232B7490E7AB7C93
:1050E000C3B102F093FD164902F00BF802F08EFDF9
:1050F000144902F006F802F089FD214602F001F899
:1051000002F084FD0E4901F0FCFF02F07FFD0E4924
:1051100001F0F7FF09B0BDE8F08300BFD4BE0D0079
:10512000D6BE0D00E9BE0D00FCBE0D0003BF0D0094
:1051300008BF0D000EBF0D001DBF0D0021BF0D00EB
:10514000BEBD0D0025BF0D000FC20D002DE9F043BF
:105150000C46054689B05049204616461F4604F0C5
:10516000D7FBAB684D4A4E49204601F0DDFB334684
:1051700022464C490097204601F0D6FB22464A4978
:10518000204601F0D1FB002695F910309E4264DAEA
:1051900006EB8608EB684FEA88073B440DF10C09E3
:1051A00093ED020A49462846FFF700FFEB68CDF869
:1051B000009053F828303B492246204601F0B4FBCA
:1051C000EB683B445B6823B122463849204601F036
:1051D000ABFBEB683B44DB6863B3224634492046B3
:1051E00001F0A2FBEB681F443F69F7B10A2097FB6F
:1051F000F0F191FBF0F300FB131300FB1171C9B246
:10520000642297FBF2F292FBF0FE00FB1E2200915B
:10521000DBB2D2B2274902A801F086FB02AB2246DC
:105220002549204601F080FB04E022462349204620
:1052300001F07AFB013695F91030F6B29E42224613
:1052400004DA1F49204601F06FFB9DE71D49204607
:1052500001F06AFB00232B7496E7AB7CC3B102F02C
:10526000D5FC194901F04DFF02F0D0FC174901F0BF
:1052700048FF02F0CBFC214601F043FF02F0C6FCE0
:10528000114901F03EFF02F0C1FC034901F039FF72
:1052900009B0BDE8F08300BF0FC20D002EBF0D00A6
:1052A00042BF0D004EBF0D0056BF0D005BBF0D008D
:1052B00061BF0D00FCBE0D0003BF0D0008BF0D0057
:1052C00021BF0D0068BF0D00BEBD0D0025BF0D0044
:1052D0002DE9F74304464FF42F701F460E469046C3
:1052E00001F012FBE37C013B012B054606D8014689
:1052F000434632462046FFF729FF03E00146204699
:10530000FFF774FEA37C23B102F080FC0D4901F08D
:10531000F8FE60680368009731464246D3F8009073
:105320002B46C8470646284601F0F6FA01213846C2
:1053300003F08AFA002306B163743046237403B085
:10534000BDE8F0836FBF0D0070B5044601200D4627
:105350001646FEF7A2FE067003462A462946204658
:10536000BDE87040FFF7B4BF70B506460C4684B187
:10537000E1683046FFF7F8FFE369A56823B104F15F
:1053800014010322084698472046FEF78AFE2C4661
:10539000EDE770BDF0B58DB0044601A80D46174687
:1053A0001E4601F089FA03980130FEF778FE019954
:1053B000206004F0ADFA2A4633463946E67405A863
:1053C00000F012FEC82001F09FFAE06005A800F08E
:1053D00019FD0023606023740899A56006A8FFF7F3
:1053E000C3FF01A801F00DFE0DB0F0BD38B50025DA
:1053F000044605744574FFF7CDFF204638BD000014
:10540000024B00221A7001F013B800BF70E20320B3
:105410002DE9F0410446502023730D4616461F46E1
:1054200001F072FAA0604FF48270FEF736FE8046FB
:1054300010B1294600F05EFE237BC4F80080042BE7
:105440004FF014000CD0FEF728FE804620B13B46FA
:1054500032462946FFF7CAFFC4F80480BDE8F08150
:10546000FEF71BFE074620B1012332462946FFF70F
:10547000BDFF6760BDE8F08110B5002304464373AB
:1054800083731346024AFFF7C3FF204610BD00BFD7
:105490007FBF0D0038B50446806801F03DFA2568ED
:1054A0003DB1284600F03EFE4FF48271284603F0DD
:1054B000CBF9204638BD30B4057B029C042D03D1C6
:1054C000006830BC00F036BE0294406830BCFFF784
:1054D0000FBD07B5002300931A46FFF7ECFF03B09A
:1054E0005DF804FB4068FFF72FBF000008B5037BA1
:1054F000042B04D04068BDE80840FFF739BD02F036
:1055000085FB034901F0FDFD9FED020A08BD00BFC8
:10551000E7BF0D005F42A2CD037B8173042B02D055
:105520004068FFF73DBD006800F058BE531E012BD8
:10553000F7B505460C4624D82749204604F0E8F97B
:105540000026374695F90D309E4242DAAB6832B2FA
:1055500003EBC20120464968009153F832301F49DD
:10556000224601F0E1F9013695F90D30F6B29E427E
:1055700005DA22461A49204601F0D6F9E2E76F73B0
:10558000E0E7032A00D022BB1349204604F0C0F90B
:105590000026374695F90D309E421ADAAB6832B2D2
:1055A00003EBC20120464968009153F832300D499F
:1055B000224601F0B9F9013695F90D30F6B29E4256
:1055C00005DA22460849204601F0AEF9E2E76F739A
:1055D000E0E703B0F0BD00BF0FC20D0085C00D00B5
:1055E0008DC00D0091C00D0021BF0D00027BFFF7A3
:1055F0009DBF08B500F01CFFBDE8084000F058BF93
:105600000175704770B50446142001F07DF9064617
:10561000142001F079F90546204604F09CF9224651
:1056200000230238984217DD12F8011B0D2911D111
:1056300011780A290ED151780D290BD191780A29B8
:1056400008D1191D14222144304604F0A1F9002389
:10565000337501E00133E5E70A21304604F040F9F3
:10566000044600B30A21013004F03AF9D8B12146CA
:10567000284604F04DF9284604F06DF9284400232B
:1056800000F8013C284603F0E1FF51EC100B03F059
:105690008DFF0446284601F03FF9304601F03CF901
:1056A00000EE104A70BD9FED010A70BD5F42A2CDB1
:1056B00030B5074D05600025057541F288358561D7
:1056C00083600525039B05774160C360026130BD9F
:1056D000A8C00D002DE9F84305460F46904600246A
:1056E0001D48E6B202F06BFC98BB2B7FB34201D899
:1056F000BDE8F8832B7DC3B102F088FA174901F0A9
:10570000EDFC02F083FA394601F0E8FC02F07EFA83
:10571000134901F0E3FC02F079FA0A22814631468E
:1057200001F0F9FC484601F0E0FC00231FFA88F282
:105730003946094802F01AFD2B7D23B102F066FAC2
:10574000084901F0DEFC4FF47A7001F0F3FD0134FA
:10575000C6E7BDE8F88300BF74E203204DBD0D002D
:1057600063BD0D00B4C00D0070B54D1E0C4601F5B3
:105770002F7206462B46002103F8011F9342FBD1EE
:10578000337D4BB102F042FA134901F0BAFC02F04A
:105790003DFA124901F0B5FC04F2BA24104802F0B7
:1057A000F9FD40B9337DB3B102F030FA0D49BDE8DF
:1057B000704001F0A6BC0A4802F095FC05F8010F04
:1057C000337D2BB102F022FA036829789B68984751
:1057D000A542E3D1E6E770BDBEBD0D00AABD0D0038
:1057E00074E20320BDBD0D0070B5054600240D48D0
:1057F00002F0D0FD064610B9AB699C4201DB0120E6
:1058000070BD012001F096FDAB6901349C42EEDBD6
:10581000287D30B102F0FAF9034901F072FC3046FC
:1058200070BD70BD74E2032077BD0D00F8B50F4662
:105830000269416804461E46FFF74CFF804802F0AB
:10584000BEFB0546002800F0EC807E497C4801F054
:1058500045FC39467A4801F041FC7B49784801F023
:105860003DFC7A49764801F039FC6168744801F0E2
:1058700035FC7749724801F031FC7649704801F0F7
:105880002DFCA1686E4801F029FC71496C4801F0BB
:1058900025FC71496A4801F021FCE168684801F083
:1058A0001DFC6B49664801F019FC6C49644801F025
:1058B00015FC6B49624801F011FC304604F04BF8CE
:1058C000684905465E4801F009FC002D05DA2D21E6
:1058D0005B4801F007FC694200E029460A2258486B
:1058E00001F019FC6049564801F0F8FB3146544874
:1058F00001F0F4FB5649524801F0F0FB504802F029
:105900005DFB237D002B71D002F080F9574901F037
:10591000F8FB02F07BF94B4901F0E0FB02F076F96D
:10592000394601F0DBFB02F071F9474901F0D6FB83
:1059300002F06CF9454901F0D1FB02F067F96168AA
:1059400001F0CCFB02F062F9414901F0C7FB02F023
:105950005DF9404901F0C2FB02F058F9A16801F07D
:10596000BDFB02F053F93A4901F0B8FB02F04EF9E1
:10597000394901F0B3FB02F049F9E16801F0AEFBEF
:1059800002F044F9324901F0A9FB02F03FF9334932
:1059900001F0A4FB02F03AF9314901F09FFB02F05B
:1059A00035F9304901F09AFB02F030F9002D074635
:1059B00003DA2D2101F096FB6D420A222946384672
:1059C00001F0A9FB02F022F9274901F087FB02F060
:1059D0001DF9314601F082FB02F018F91C4901F073
:1059E0007DFB02F013F9224901F08BFB2046FFF703
:1059F000FBFE237D0BB901241DE002F007F91D49D0
:105A000001F07FFB0E4802F0C5FC0028F3D00C48E3
:105A100002F069FB044602F0F9F8E1B201F062FB22
:105A2000F0E7237D33B102F0F1F8134901F069FB8F
:105A30002C4600E01C46024802F094FC2046F8BDCB
:105A400074E20320C5C00D00DDC00D00E9C00D00EB
:105A50000DC20D00F0C00D00FDC00D000CC10D0009
:105A600020C10D0041C10D000BC20D0052C10D003F
:105A70006EC10D008CC10D00A8C10D0070B52DEDDB
:105A8000028B044600230E461546416868485022A2
:105A900002F06CFB204650226168FFF71BFE644851
:105AA00002F08DFA002800F0B4806249604801F0ED
:105AB00015FB31465E4801F011FB5F495C4801F07F
:105AC0000DFB29465A4801F009FB5C49584801F092
:105AD00005FB5B49564801F001FB5A49544801F067
:105AE000FDFA0A225021524801F015FB5649504850
:105AF00001F0F4FA55494E4801F0F0FAA1684C481B
:105B000001F0ECFA50494A4801F0E8FA5049484897
:105B100001F0E4FAE168464801F0E0FA4A494448F5
:105B200001F0DCFA4B49424801F0D8FA237D002B02
:105B300050D002F06BF83F4901F0D0FA02F066F85D
:105B4000314601F0CBFA02F061F83B4901F0C6FAA8
:105B500002F05CF8294601F0C1FA02F057F8374923
:105B600001F0BCFA02F052F8354901F0B7FA02F040
:105B70004DF8344901F0B2FA02F048F80A225021F7
:105B800001F0C9FA02F042F82F4901F0A7FA02F039
:105B90003DF82E4901F0A2FA02F038F8A16801F0B0
:105BA0009DFA02F033F8284901F098FA02F02EF835
:105BB000274901F093FA02F029F8E16801F08EFA22
:105BC00002F024F8204901F089FA02F01FF8214977
:105BD00001F084FA2046FFF707FE28B914489FED2C
:105BE0001E8A02F0BFFB1DE04FF42F7000F08CFE08
:105BF000014605462046FFF7B7FD2846FFF702FDA0
:105C00000B48B0EE408A02F0ADFB284600F084FE5F
:105C100008E0237D002BE1D001F0F8FF0F4901F0EF
:105C200070FADBE7B0EE480ABDEC028B70BD00BF36
:105C300074E20320D2C10D00E7C10D00E9C10D00DF
:105C4000DDC00D00E9C00D000DC20D00F0C00D005B
:105C5000FDC00D00EDC10D005F42A2CD10C20D00D0
:105C600010B5064C00F0E4FB204602F033FC204661
:105C7000034A0449BDE8104002F0D8BD74E2032095
:105C80001CE1032035410D0003681847012A02D0AA
:105C9000022A02D004E0016002E00B6800B1036058
:105CA0000020704713B51C20FEF7F7F9044648B1F1
:105CB000064B07491B68009342F23432054B0968D2
:105CC000FEF720FF204602B010BD00BFC8E203204F
:105CD000CCE203202EBF0D0013B52020FEF7DDF926
:105CE000044640B1054B06491B6800935022054B02
:105CF0000968FFF7DDFC204602B010BDC8E20320B2
:105D0000CCE203202EBF0D0013B51C20FEF7C5F911
:105D1000044648B1064B07491B68009342F23432EF
:105D2000054B096800F072FA204602B010BD00BFB2
:105D3000C8E20320CCE203202EBF0D0013B51420CF
:105D4000FEF7ABF9044640B1054B06491B680093CA
:105D500000231A46096800F0F3FA204602B010BD8D
:105D6000C8E20320CCE2032010B5064B0360643385
:105D70000446036100F01FFF204601F0E1F82046D1
:105D800010BD00BFC0C40D0010B58368044613B138
:105D9000032201469847204610BD000010B586B08A
:105DA00000230446049321B10F4B05930F4B02913E
:105DB000049302AB93E803008DE8030094E803002A
:105DC00083E803009DE80300049A84E80300A168C7
:105DD000A260059A04911846E168E2600591FFF718
:105DE000D3FF204606B010BD895C0D008D5C0D0010
:105DF00010B50446FFF7B8FF20464C2102F024FD01
:105E0000204610BD70B500F10801C2680B464AB1CA
:105E10000478157CA54236BFD46894681A461346A8
:105E20002246F4E7994204D000781A7C904238BFA9
:105E30000B46DA690AB902F0D3FD1A6A03F11400BD
:105E4000BDE8704010478B6870B5164604460D1DBE
:105E500001225BB130781A7C904234BF9868D868D0
:105E60001D4634BF012200220346F2E732B1CA6860
:105E700095420AD0284602F04EFD00E028463378CD
:105E8000027C9A424FF0000302D284E8280001E02D
:105E900084E80900204670BD2DE9F743064624201A
:105EA0001F460C46FEF7F9F83B6810F110081CBFBE
:105EB0001B78037406F104071CBF0023C361A742CB
:105EC000054608D17369002B5CD03169037C0A7CDC
:105ED0009A423AD356E090F81090237C994517D215
:105EE000F368A342204611D002F015FD037C4B4518
:105EF00005D2C368002B14BF2046002406E0684684
:105F000042463146FFF79FFF009C019801461AE088
:105F10002FD93369A34213D0204602F0E9FC037C59
:105F20004B4505D9E368002B14BF0446002008E068
:105F3000684642463146FFF786FF9DE8110000E0C3
:105F4000002021460446A1B144B98F4206D0087C06
:105F50002B7C83422CBF0020012000E001203B4627
:105F60000A46294602F0D9FC736901337361284659
:105F700010E005F11400FFF707FF2846FEF791F83F
:105F8000204607E0314642466846FFF75CFF009C2A
:105F90000199D8E703B0BDE8F08300007FB5041D88
:105FA00083680A4621464BB115781E7CAE4236BF47
:105FB000DD689D680B4619462B46F4E78C4203D0FA
:105FC00014780B7C9C4208D204AB43F8042D02AA3F
:105FD0000092044AFFF760FF014601F1140004B08B
:105FE00070BD00BF36C20D002DE9F74304461D46C3
:105FF0008946904600211022083003F040FC2570AD
:1060000002AD012305F8013D04F10802261D002719
:10601000226162612946A7613046FFF7BFFF15493B
:10602000FFF7BCFE294630468DF80770FFF7B6FF34
:106030001149FFF7B3FE0223294630468DF8073099
:10604000FFF7ACFF0D49FFF7A9FE032329463046B1
:106050008DF80730FFF7A2FF0949FFF79FFE094BB4
:10606000C3F80090084B2046C3F8008003B0BDE899
:10607000F08300BFA55C0D00D95C0D00095D0D002B
:106080003D5D0D00CCE20320C8E2032070B5104D49
:10609000104C114E00F0CCF9284602F01BFA2846AD
:1060A0000E4D2246314602F0C1FB284602F012FA9C
:1060B00028460B4D2246314602F0B8FB284600F038
:1060C00021FF224628460749BDE8704002F0AEBBDA
:1060D000ACE203201CE1032035410D0090E20320D7
:1060E000D0E20320695D0D0000221146406800F0F7
:1060F0009BBB00001FB50A4B04466846196000F0C0
:10610000DBFB02980130FDF7CAFF0099206003F025
:10611000FFFB684600F075FF204604B010BD00BFCD
:1061200024E3032010B50446006808B1FDF7BBFF67
:10613000204610BD2DE9F047A4B00646894610EE72
:1061400010AA1F46DDF8B08015460BAC52B11046C0
:1061500003F001FC642807D901F058FD1A4900F04A
:10616000D0FF01E0194900E02946204603F0D0FBAA
:1061700008AD2FB13A461649284600F0D5FB03E09A
:106180001249284603F0C4FB07AFB8F1000F05D051
:1061900042461049384600F0C7FB03E00B49384639
:1061A00003F0B6FB504604970395029402F0C8FE34
:1061B0000436CDE900014A460749304600F0B4FBF9
:1061C00024B0BDE8F08700BF37C20D00AAC50D009E
:1061D000F8BE0D0090C70D0071C20D00014B197083
:1061E000704700BF1CE3032008B500F021F900F060
:1061F0005FF9014B186008BD20E303209FED010A01
:10620000704700BF5F42A2CD0175704730B5064DA3
:10621000056000250575836041F28835039B856123
:106220004160C360026130BD54C40D0010B5064C1E
:1062300000F0FEF8204600F065FE2046034A0449BF
:10624000BDE8104002F0F2BA28E303201CE103206D
:10625000695D0D0010B504464A68024902F0CAF9AA
:10626000204610BDE8E60320F0B58FB00146064693
:1062700002A81F46FFF7EEFF02A801F029FCA0B913
:10628000337D23B101F0C2FC254900F03AFFF3232E
:10629000009337223D23A92108A809AD01F03CFC59
:1062A0000FCD03AC0FC42B682370002240F2BD2138
:1062B0001C4800F057FE002242F23431194800F029
:1062C0002CFC03AD184B08930FCD09AC0FC42B6801
:1062D0001448237042F2343208A900F05DFE68B120
:1062E00067B1384603F037FB394602460D4800F0E7
:1062F00070FC18B10B4800F0CBFC58B9337D23B1CA
:1063000001F084FC094900F0FCFE064800F053FC53
:10631000002003E0034800F04EFC01200FB0F0BD68
:106320009FC30D0028E303204CC60D002BC40D00B5
:106330009FED010A704700BF5F42A2CD0174704714
:1063400010B5044C046083600024029B0474416017
:10635000C36010BD68C40D0070B5064600200C4631
:1063600000F01EFA08B9002070BD002C03DD00F01B
:106370009FF8054600E0002573783BB9002C07DD47
:1063800000F096F8401BA04202D3ECE7012070BD5C
:1063900000F082FAF0E730B585B01A46089B1B780A
:1063A0008DF8003002A83C2301F0B6F9029C0021D0
:1063B0002046FFF7D1FF6378BFF35F8F33B1002131
:1063C0002046FFF7C9FF2378012B13D00025039C3B
:1063D00094B16368013B636073B9236820469B688E
:1063E0009847A368013BA36033B923682046DB6864
:1063F000984701E0257BEAE7284605B030BD00F06C
:1064000017B800F015B800F013B800F011B800008C
:1064100008B5024B1B689B68019308BD6802030026
:1064200008B5024B1B68DB68019308BD68020300D6
:1064300008B5024B1B681B68019308BD2C020300C2
:1064400008B5024B1B689B68019308BD2C02030032
:1064500008B5024B1B68DB68019308BD2C020300E2
:1064600008B5024B1B681B69019308BD2C02030091
:1064700008B5024B1B68DB69019308BD30020300BD
:1064800008B5024B1B681B6A019308BD300203006C
:1064900008B5024B1B685B69019308BD6C020300E1
:1064A00008B5024B1B685B68019308BD1802030026
:1064B00008B5024B1B685B69019308BD1802030015
:1064C00008B5024B1B68DB69019308BD1802030085
:1064D00008B5024B1B689B6D019308BD18020300B1
:1064E00008B5024B1B689B68019308BD4802030076
:1064F00008B5024B1B681B69019308BD48020300E5
:1065000008B5024B1B685B69019308BD4802030094
:1065100008B5024B1B685B6C019308BD4802030081
:1065200008B5024B1B689B6C019308BD4802030031
:1065300008B5024B1B685B69019308BD6402030048
:1065400008B5024B1B681B6A019308BD6402030077
:1065500008B5024B1B685B6A019308BD6402030027
:1065600008B5024B1B689B6A019308BD64020300D7
:1065700008B5024B1B681B68019308BD3C02030071
:1065800008B5024B1B68DB68019308BD3C020300A1
:1065900008B5024B1B681B69019308BD3C02030050
:1065A00008B5024B1B685B69019308BD3C02030000
:1065B00008B5024B1B689B69019308BD3C020300B0
:1065C00008B5024B1B68DB69019308BD3C02030060
:1065D00008B5024B1B681B6A019308BD3C0203000F
:1065E00008B5024B1B689B6A019308BD3C0203007F
:1065F00008B5024B1B681B6A019308BD2802030003
:1066000008B5024B1B685B6A019308BD28020300B2
:1066100008B5024B1B689B6A019308BD2802030062
:1066200008B5024B1B68DB6A019308BD2802030012
:1066300008B5024B1B681B6B019308BD28020300C1
:1066400008B5024B1B685B6B019308BD2802030071
:1066500008B5024B1B681B6C019308BD28020300A0
:1066600008B5024B1B685B68019308BD3802030044
:1066700008B5024B1B689B69019308BD38020300F3
:1066800008B5024B1B68DB69019308BD38020300A3
:1066900008B5024B1B681B6A019308BD3802030052
:1066A00008B5024B1B689B6A019308BD38020300C2
:1066B00008B5024B1B68DB6A019308BD3802030072
:1066C00008B5024B1B681B6B019308BD3802030021
:1066D00008B5024B1B685B6B019308BD38020300D1
:1066E00008B5024B1B689B6B019308BD3802030081
:1066F00008B5024B1B681B68019308BD4C020300E0
:1067000008B5024B1B685B68019308BD4C0203008F
:1067100008B5024B1B681B69019308BD4C020300BE
:1067200008B5024B1B685B69019308BD4C0203006E
:1067300008B5024B1B689B69019308BD4C0203001E
:1067400008B5024B1B68DB69019308BD4C020300CE
:1067500008B5024B1B681B6A019308BD4C0203007D
:1067600008B5024B1B681B6D019308BD6002030056
:1067700008B5024B1B681B68019308BD200203008B
:1067800008B5024B1B685B68019308BD200203003B
:1067900008B5024B1B685B69019308BD200203002A
:1067A00008B5024B1B68DB6C019308BD2002030097
:1067B00008B5024B1B685B6D019308BD2002030006
:1067C00008B5024B1B689B6D019308BD20020300B6
:1067D00008B5034B1B68D3F88830019308BD00004F
:1067E0002002030008B5034B1B68D3F894300193D3
:1067F00008BD00002002030008B5024B1B685B685F
:10680000019308BD4002030008B5024B1B689B685A
:10681000019308BD4002030008B5024B1B68DB680A
:10682000019308BD4002030008B5024B1B681B69B9
:10683000019308BD4002030008B5024B1B685B6969
:10684000019308BD4002030008B5024B1B689B6919
:10685000019308BD4002030008B5024B1B68DB69C9
:10686000019308BD4002030008B5024B1B681B6A78
:10687000019308BD4002030008B5024B1B681B6B67
:10688000019308BD4002030008B5024B1B685B6B17
:10689000019308BD4002030008B5024B1B689B68CA
:1068A000019308BD4402030008B5024B1B685B69F5
:1068B000019308BD4402030008B5024B1B68DB6965
:1068C000019308BD4402030008B5024B1B681B6A14
:1068D000019308BD4402030008B5024B1B685B6AC4
:1068E000019308BD4402030008B5024B1B681B6BF3
:1068F000019308BD4402030008B5024B1B68DB6B23
:10690000019308BD4402030008B5024B1B681B68D5
:10691000019308BD1C02030008B5024B1B685B68AD
:10692000019308BD1C02030008B5024B1B68DB681D
:10693000019308BD1C02030008B5024B1B689B694C
:10694000019308BD1C02030008B5024B1B685B6A7B
:10695000019308BD1C02030008B5024B1B68DB6AEB
:10696000019308BD1C02030008B5024B1B681B6B9A
:10697000019308BD1C02030008B5024B1B68DB6BCA
:10698000019308BD1C020300002211464068FFF776
:106990006BBF002211464068FFF776BF00224068B7
:1069A000FFF76ABF002281F001014068FFF754BF82
:1069B00000231A4619464068FFF746BF00231A46CF
:1069C00019464068FFF738BF002211464068FFF7BC
:1069D0002BBF002211464068FFF716BF002202219C
:1069E0004068FFF719BF00231A464068FFF704BF4D
:1069F000024B03225A60024A1A60704774E3032074
:106A00007CC40D00704710B50C21044601F01CFF3A
:106A1000204610BD10B5054B0360044601710846C1
:106A2000FFF726FD0023A360204610BDB0C40D0073
:106A30000079FFF725BD10B50446006818B1FFF7CF
:106A40006BFF0023236010BD10B50446FFF7F3FF72
:106A5000204610BD10B5094C00204FF6FF73206092
:106A6000A080A07120816381FFF78AFE2046044A3E
:106A70000449BDE8104001F0D9BE00BF7CE303200B
:106A80001CE10320496A0D0010B40468246BA4467D
:106A90005DF8044B604703689B6C1847808E704715
:106AA000028FC08E101A704713B502AB026803F84C
:106AB000011DD46819460122A04702B010BD10B5CF
:106AC00003681B690446984728B1E38EE26B591CA2
:106AD000E186D05C10BD4FF0FF3010BD10B50368EB
:106AE0001B690446984718B1E38EE26BD05C10BD79
:106AF0004FF0FF3010BD704710B403460846DC6B02
:106B0000D98E1A8F0368521ADB6821445DF8044B52
:106B10001847A0F11000FFF7EFBFF0B503688DB084
:106B20001C265B6A04460F461546984701233246E9
:106B3000002105A8029302F0A2FE8DF814603846E9
:106B40000A268DF81560FFF70BFD1122ADF816002F
:106B500002213046FFF7C4FD0028606124DB0422D7
:106B6000009202AB40F6FF71FFF782FDE0B995B1EC
:106B70000390ADF8100003A9E8B2FFF789FC98B9BB
:106B80000623009341F20B0203AB40F6FF716069EC
:106B9000FFF76EFD40B91C2205A96069FFF760FD93
:106BA00010B96564012004E0236820465B6A9847B9
:106BB00000200DB0F0BD10B504464069002801DB8F
:106BC000FFF75EFD4FF0FF3363610023E386238709
:106BD00010BD38B5C36B0546C08E13B12C6C241A9A
:106BE00000E01C46944228BF14462246184402F096
:106BF0003BFEEB8E2344EB86204638BD70B5036820
:106C00001B6904460E461546984788B123682046FE
:106C10001B699847E38EE16B8542A8BF054619447E
:106C20002A46304602F020FEE38E2B44E38601E044
:106C30004FF0FF35284670BD70B50446054B44F84B
:106C4000043B01F1200506460FCD0FC42B682370CD
:106C5000304670BD4CC60D00F0B59446026889B050
:106C6000976A0A4A02921D1D8E4606460FCD03AC56
:106C70000FC42B682370BDF838300093624602AB16
:106C800071463046B84709B0F0BD00BF4CC60D0094
:106C9000F0B50368B0F836E09F6A0D4B89B000F19B
:106CA0002006044602930FCE03AD0FC533682B7048
:106CB000A38E0093724602ABE16B2046B84723686F
:106CC0000546DB6920469847284609B0F0BD00BF5D
:106CD0004CC60D00F0B54378022B8DB005460C462E
:106CE000174601D1011D33E00A2B35D111220021B5
:106CF00001A802F0C4FDAB6843B9EB6833B94FF6A5
:106D0000FF702E69FFF71CFC86421FD005F10803B7
:106D100001AE05F1180E18685968324603C20833EF
:106D200073451646F7D1062301A906A807AE8DF8CC
:106D3000143000F0BBFE0FCE04340FC43368237050
:106D400057B16888FFF704FC388005E005F11401AD
:106D5000204600F0EDFEF3E70DB0F0BD2DE9F04167
:106D60008EB00EAB002506461746084643F8345D44
:106D70002A462946FFF754FB00281FDB019BFBB185
:106D80005B69EBB102A800F083FE019B2A465869BB
:106D900002A9FFF79FFF02A800F09AFE80B13368B6
:106DA00003ADD3F838800B4B08930FCD09AC0FC45B
:106DB0002B6823703A4608A93046C047044601E0D4
:106DC0004FF0FF340198FFF723FB20460EB0BDE8DB
:106DD000F08100BF4CC60D002DE9F047D0F81480BB
:106DE000B8F1000F8CB005460C461746994600DBFB
:106DF00011B94FF0FF3035E04FF01C0A05AE524696
:106E00000021304602F03BFDCDF808A0B9F1000F9B
:106E100014D04FF47A72B9FBF2F1039102FB119195
:106E20004A4308230492009341F2060203AB40F662
:106E3000FF714046FFF71CFC08B113E0082002ABCD
:106E400001932146034600963A466869FFF730FCF5
:106E5000041E06DB05F1340205F11C013046FFF784
:106E600039FF20460CB0BDE8F08738B5054614461A
:106E70002B7D062B084611D11C2313700A23537057
:106E8000FFF76EFB083424F8060C2B1D143553F85D
:106E9000042B44F8042BAB42F9D138BD042B0AD1A2
:106EA0001023137002235370FFF75AFB6080686849
:106EB000FFF746FB606038BD2DE9F0438BB003ACB3
:106EC0001C25994606460F46904600212A46204634
:106ED00002F0D5FC2246BDF848104846FFF7C5FF32
:106EE0009DF80D3043B18DE830000023424639460D
:106EF0007069FFF7EDFB01E04FF0FF300BB0BDE82C
:106F0000F083000038B54FF47A7383600B4B03F1C4
:106F100008026C33002503614FF0FF3304464560DF
:106F2000026043611C3000F0B3FD4FF40073E5864E
:106F30002587E56323646564204638BDB8C40D0029
:106F400010B590F84830044623B1C06B10B1012150
:106F500001F07AFC0023E36384F848302364E3867D
:106F6000238710BD70B5044616460D46FFF7E8FFAF
:106F70000023E66323643EB935B12846FDF78FF858
:106F80000123E06384F84830E36B03B12564206C8F
:106F9000003018BF012070BDF8B51746C26B05461A
:106FA0000C461AB9016C09B1FFF7DCFF04340FCCB1
:106FB00005F120060FC6236833700023AF86EB86E9
:106FC0002B87286CF8BD70B5C26B04460E461AB903
:106FD000016C09B1FFF7C6FFE16B0022E286228750
:106FE00049B1226C3AB1236820461D6B3346A8474D
:106FF0000028C8BF2087236820461B69BDE8704071
:10700000184710B504460068FFF786FC204610BDFF
:1070100010B50446006808B1FFF782FA204610BD9B
:1070200010B5036804469B689847A368013BA360BA
:107030002BB923682046DB68BDE81040184710BD17
:107040000B68036013B15A6801325A60704710B57B
:107050000446006828B14368013B43600BB9FFF761
:10706000DFFF204610BD000010B5064C002320466F
:107070002360FFF74DFA2046034A0449BDE810405B
:1070800001F0D4BB88E303201CE1032011700D0044
:10709000F8B506460D468F180024BD420CD0336863
:1070A00015F8011B9B6830469847002801DB044413
:1070B000F3E7002C08BF04462046F8BD70B505462E
:1070C0000C46084649B102F046FC2B6802462146B0
:1070D0002846DB68BDE87040184770BD08B5FFF76B
:1070E000EDFF08BD03689B68184738B50D210546BC
:1070F000FFF7F8FF0A2104462846FFF7F3FF204474
:1071000038BD38B50546FFF7D9FF04462846FFF7D6
:10711000ECFF204438BD30B58BB00B4600218DF814
:107120002410012A98BF0A220DF12304B3FBF2F5C3
:1071300005FB123303F0FF03092B94BF30333733C1
:10714000DBB2214604F801392B46002DEED1FFF7C2
:10715000B5FF0BB030BD0CB42DE9F04387B000AFE4
:1071600007F13804054654F8049B3C600E4623465C
:107170004A461421381DFFF7E7FB132805D8391DAF
:107180002846FFF79BFF044613E000F1080323F0B5
:107190000703E846ADEB030D411C23464A4668460B
:1071A0003C60FFF7D1FB69462846FFF787FF04469E
:1071B000C5461EB12846FFF798FF044420461C37F9
:1071C000BD46BDE8F04302B070470000014B024AE3
:1071D0001A6070478CE303209BC50D00F0B5144B7B
:1071E000144F1E68144B064418683B6806449E42C0
:1071F0008BB01BD00AA801AD40F8286D02F038FA18
:10720000436903F26C73436104460FCC0FC50FCC86
:107210000FC5D4F800E0C5F800E001AD0FCD074C74
:107220000FC40FCD0FC43E60C4F800E00BB0F0BD3A
:10723000C0E30320BCE30320B8E3032090E3032072
:1072400008B50020FFF750FB28B1FFF72DFB80F0B9
:107250000100C0B208BD012008BD0000FAEE087AA6
:10726000B4EEE70AF1EE10FA0FD4F2EE0C7AB4EEB7
:10727000E70AF1EE10FA08DCDFED047A044B20EEA9
:10728000270ABDEEC00A83ED000A70470000614581
:10729000C0E3032010B50020FFF71AF9044668B9CF
:1072A000FFF766FA01280BD12046FFF789FA38B9B3
:1072B000FFF7C6FF30B9FFF7EFFAF9E7012010BD7D
:1072C000002010BDFFF7BCFF0020FFF701F90030E0
:1072D00018BF012010BD08B5FFF7DCFFBDE808406E
:1072E000FFF7EEB808B5FFF7F6FFFFF777FF014BA2
:1072F000986808BD90E3032008B5FFF7ECFFFFF79F
:107300006DFF014B586808BD90E3032008B5FFF7F7
:10731000E2FFFFF763FF014B186808BD90E303200D
:10732000024B1A68024B1A60704700BF2CE0032022
:10733000B4E303200021FFF72BBA10B50446FEF793
:1073400023FD204610BD13B50B46044603C88DE847
:10735000030093E8030084E803009DE8030083E84A
:10736000030002B010BD00000348044A0449002392
:10737000836001F05BBA00BFC4E303201CE103207B
:107380003B730D0008B50C4B33B100F03FFC0368B4
:107390001B699847002809DC084B63B100F0B8FC72
:1073A00003681B699847002803DC08BDAFF3008021
:1073B000F2E7AFF3008008BD00000000000000000D
:1073C00008B5FFF7DFFFFFF773F8014B186008BD42
:1073D00008E703200248034A0349121A02F044BA9C
:1073E00000F4032004F40320D0CB0D0007B50023E4
:1073F00000931A466FF07701FFF7F4F903B05DF8D8
:1074000004FB000007B543880A2B08D0502B09D194
:10741000094B1B683BB103B05DF804EB1847FFF75D
:10742000E5FF06E0002300931A466FF07701FFF7AF
:10743000D9F903B05DF804FBD4E3032038B5104C50
:10744000104D2368AB42104B0CBF012200221A7072
:1074500002D0FFF7BFFF2560FFF722F8044602F0D5
:1074600017FA0A4B13B12046AFF3008000210748FA
:10747000FFF742FA00210648BDE83840FFF7A8B9F7
:1074800000F403201E1C279AD8E30320000000000C
:1074900005740D0070470020704710B51021044698
:1074A00001F0D2F9204610BD08B508B1FFF7F5FF8D
:1074B00008BD0022026010B54FF69C728280B1F9BF
:1074C000044084808A8002680C6804600A6010BDF1
:1074D00010B504460068FFF71FFA204610BD38B506
:1074E000C468F4B12378022B03D104F10C00FFF738
:1074F000EFFF656835B12846FEF746FC10212846A7
:1075000001F0A2F9A56835B12846FEF73DFC10212F
:10751000284601F099F920461421BDE8384001F0D1
:1075200093B938BD13B5044691E8050000234B60BC
:107530000B602060626001A801930093FFF787FD54
:10754000204602B010BDF7B50C4602AD54F8043B1E
:1075500045F8083D06460F4601A82146FFF770FD95
:1075600029463046FFF7DEFF01A8FFF770FD2046F1
:10757000FFF76DFD3846082101F066F9304603B08B
:10758000F0BD000038B500230446036010200D460E
:10759000FCF783FD28B1012343608360024B036045
:1075A000C5602060204638BD30C60D00826810B529
:1075B0000AB901F015FAC368BDE81040184708B5CC
:1075C000006800F11001FFF7F1FF08BD826810B5F7
:1075D0000AB901F005FAC368BDE81040184708B5BC
:1075E000006800F11001FFF7F1FF08BD38B5002376
:1075F00083608B6804460D462BB102229847EB68E6
:10760000E360AB68A360204638BD0000F0B589B0E8
:1076100004686846FFF74DFF00238DF808304FF0EF
:107620000202D4E84F3F002B03D1C4E8412F0029C8
:10763000F7D102D08DF8083063E014F10C0503D0C7
:1076400069462846FFF735FFBFF35F8F012363705C
:10765000002004F10803BFF35F8F53E8006F43E895
:107660000002002AF9D1BFF35F8F002E49D0FFF747
:1076700097F820B129463046FFF798FF3AE03146A7
:1076800002A8FFF7B3FFE068B4F9105008B102F0A8
:1076900047F906901020ADF81C50FCF7FEFC05469B
:1076A000E8B1002787601820FCF7F7FC044688B192
:1076B0000146876002A8FFF746FE049BA268A3600C
:1076C000059B049206A9E268E36004F110000592AC
:1076D000FFF7EFFE0D4BEB600D4B2C60AB6006A887
:1076E000FFF7F6FE02A8FEF74FFB002229460948E5
:1076F000FFF75EF83046FEF747FB1021304601F0F9
:10770000A3F86846FFF7E4FE09B0F0BDBF750D00B1
:1077100035780D005D7D0D002DE9F04F8BB00646EC
:107720000F46904699469DF850A0FFF7BDF807AD6B
:10773000834630BB4FF62E73059005A92846ADF859
:107740001830FFF7B6FE1420FCF7A7FC044658B12A
:107750000223037001234370C0F804B0C0F808B0DE
:1077600029460C30FFF7A5FE3046214640F8044B71
:10777000FFF708FF2846FFF7ABFE05A8FFF7A8FEB6
:1077800052E000240C2314206C60AC600793FCF7DB
:1077900084FC014618B1047044704460846004A8FD
:1077A0000391FFF7EFFE224B08930820FCF775FCCE
:1077B000044628B1039B40F8043B04A9FFF740FCB2
:1077C00000955FFA8AF34A46414638460994FFF726
:1077D0007BF820B9039B5B7803F0FF0283B1039B26
:1077E000059304A906A8FFF72BFC05A93046FFF76F
:1077F00099FE06A8FFF72BFC04A8FFF728FC13E06E
:107800004FF69C7305A903A80592ADF81830FFF751
:10781000FDFE05A8FFF75CFE05A80999FFF793FE9A
:1078200006A8FFF714FCDAE730460BB0BDE8F08F8E
:10783000A5790D00022AF8B5044606D0032A17D010
:10784000012A22D10B6803601FE018200E68FCF7A4
:1078500024FC054650B13146FFF7C8FE3069B6F941
:10786000147008B102F05CF82861AF8225600CE06A
:10787000046854B104F11000FFF72AFE2046FEF719
:1078800083FA1821204600F0DFFF0020F8BD38B54C
:10789000002383608B6804460D462BB10222984773
:1078A000EB68E360AB68A360204638BD022A70B580
:1078B000044606D0032A11D0012A18D10B680360B0
:1078C00015E014200E68FCF7E8FB054620B13146B0
:1078D000FFF7DDFF337C2B74256008E0046834B1CA
:1078E0002046FEF751FA1421204600F0ADFF00209B
:1078F00070BD0000F0B5002387B00C46BFF35F8F6A
:1079000050E8006F40E80032002AF9D1BFF35F8FE2
:10791000002E3FD01846FEF743FF074620B1214610
:107920003046FFF753FE2EE0314601A8FFF7AFFFC8
:1079300023788DF814301020FCF7AFFB0546D0B14A
:1079400087601420FCF7A9FB044678B187600146E4
:1079500001A8FFF7F8FC039BA268A360049B0392B5
:10796000E268E3609DF81430049223740A4BEB60E4
:107970000A4B2C60AB6001A8FEF706FA00222946EC
:107980000748FEF715FF3046FEF7FEF91021304696
:1079900000F05AFF07B0F0BDDF750D00AD780D00A7
:1079A0005D7D0D0030B585B004460D466846114634
:1079B000FFF7C9FD7CB124B228460DB101F0B0FF3C
:1079C000029002A96846ADF80C40FFF71FFE02A81E
:1079D000FFF77EFD1DE000988DF808404FF0010292
:1079E000D0E84F3FA34203D1C0E8412F0029F7D18F
:1079F00002D08DF808300CE010F10C014FF00103BB
:107A000018BF0373BFF35F8F043000F8033CFFF728
:107A100071FF01A8FFF71BFB05B030BD704710B523
:107A20001821044600F010FF204610BDF0B5037D7C
:107A3000062B8DB00E4600F104074FF0000402D073
:107A400000F1080518E00CAD394605F8304D2F233C
:107A50002A460A20FEF76CFD284601F07CFF3368B9
:107A60000246DB682946304698470FE024B12E21B4
:107A70003046FFF737FB044415F8011D0A22304653
:107A8000FFF749FBBD420444F0D120460DB0F0BDE4
:107A900010B5054B0446112240F8043B002101F0CB
:107AA000EEFE204610BD00BF4CC60D000346074A3F
:107AB00010B543F8042B01F1100251F8044B43F8C0
:107AC000044B9142F9D10A781A7010BD4CC60D00D2
:107AD000037D042B01D1406808E0062B0AD14368DE
:107AE00053B9836843B9C36833B90069003018BF1C
:107AF00001207047002070470120704710B59DF8A5
:107B0000084044EA032343EA024242EA01610423B3
:107B10004160037510BD000037B5044D05609DF848
:107B200018500095FFF7EAFF03B030BD4CC60D00BA
:107B300037B50D788B784A78C97800912946FFF7D8
:107B4000DDFF03B030BD41747047704708B50021B8
:107B5000007CFEF7EDFD30EA200028BF4FF0FF303B
:107B600008BD08B50121007CFEF7E2FD30EA2000E7
:107B700028BF4FF0FF3008BD08B5007CFEF7D0FDF0
:107B800020EAE07008BD08B5007CFEF7C1FD20EAE0
:107B9000E07008BD007CFEF7DBBD10B51421044683
:107BA00000F052FE204610BD38B50446007C0D465C
:107BB000FEF7B6FD002801DC607C28B12946207C58
:107BC000FEF7BEFD20EAE07038BD000010B50446A7
:107BD000002363604FF47A73A360054B2360012395
:107BE0000846217463741146FEF782FD204610BDDD
:107BF00060C60D000022007CFEF782BD10B5142285
:107C00000446002101F03BFE204610BD30B50E4D6C
:107C100087B001A8FFF7F2FF296811F0010410D125
:107C20002846FCF742FA60B101AA21460748FFF74F
:107C3000CDFF2846FCF73EFA054A0649034800F006
:107C4000F5FD024807B030BDDCE30320E0E303208C
:107C50001CE103204B7B0D0070474174704708B551
:107C6000007CFEF7BDFC20EAE07008BD08B5007C92
:107C7000FEF78EFC20EAE07008BD08B5007CFEF738
:107C800097FC30EA200028BF4FF0FF3008BD08B550
:107C9000007CFEF785FC30EA200028BF4FF0FF3063
:107CA00008BD007CFEF78CBC10B51421044600F022
:107CB000CBFD204610BD70B5457C04460E4625B967
:107CC000007CFEF78DFC002805DD3146207CBDE8F8
:107CD0007040FEF755BC284670BD000010B5044644
:107CE00008461146002262604FF47A72A260054A8B
:107CF00022600122207462741A46FEF739FC204685
:107D000010BD00BF90C60D00007CFEF761BC0000F6
:107D100038B50C4D296811F0010411D12846FCF743
:107D2000C4F968B1084A094B09482146FFF7D6FF54
:107D30002846FCF7BFF9074A0749054800F076FDD9
:107D4000034838BD8CE4032090E4032008E40320BA
:107D5000F4E303201CE10320597C0D0010B5836877
:107D600004460BB900F03CFEC3689847A3681BB1FA
:107D7000032221462046984720461021BDE81040A6
:107D800000F062BD7047F8B5064615460C468F18E0
:107D9000BC4206D0336814F8011B9B6830469847F4
:107DA000F6E72846F8BD0022007CFEF721BC002142
:107DB000007CFEF725BC0021007CFEF729BC0021D9
:107DC000007CFEF72DBC0021007CFEF731BC10B515
:107DD0001421044600F038FD204610BD10B50446BD
:107DE000002363604FF47A73A360044B2174084648
:107DF00023601146FEF72CFC204610BDC0C60D00C6
:107E00000021007CFEF71CBC002211464068FEF7F2
:107E10002BBD002211464068FEF736BD00224068A7
:107E2000FEF72ABD002281F001014068FEF714BD73
:107E300000231A4601214068FEF706BD00231A46BA
:107E400019464068FEF7F8BC002211464068FEF76C
:107E5000DBBC002202214068FEF7DEBC00231A468C
:107E60004068FEF7C9BC38B5054688B104684CB116
:107E7000A3681BB1032221462046984710212046C3
:107E800000F0E2FC28461421BDE8384000F0DCBCDC
:107E900038BD10B103685B681847704710B50368B8
:107EA0000446BBB15868FEF71BFB78B923685A7CBF
:107EB00012B95868FEF71CFB23685868FEF720FBD0
:107EC00020680023236028B1FFF7CDFF206808B1A8
:107ED000FFF7C9FF204610BD38B50446D0F8C401ED
:107EE00008B1FCF7E0F8D4F8C00108B1FEF718FBC0
:107EF000D4F8BC5135B12846FFF7D0FF04212846FD
:107F000000F0A2FC206808B1FFF7C3FF204638BD8F
:107F100010B5044B044640F8083BFFF7DDFF204650
:107F200010BD00BFE8C60D0038B50E4C0E4B2360E7
:107F30000025022304F5E4706360A560C4F8C45111
:107F4000C4F8C851FEF7E4FA084BC4F8CC5184F8E1
:107F5000D05123602046064A0649BDE8384000F06B
:107F600065BC00BF14E50320D0C70D00E8C60D00B6
:107F70001CE10320117F0D0037B502AC036804F843
:107F8000011DDD6B01224FF0FF332146A84703B0EE
:107F900030BD10B40368DC6B4FF0FF33A4465DF8CE
:107FA000044B604737B502AC036804F8011DDD6B74
:107FB000214613460122A84703B030BD704738B5AB
:107FC00043691A68002A044605DAB3F88620B3F834
:107FD00084309A4201D001250BE003681B69984761
:107FE000002814BF0125002503D123682046DB6A41
:107FF0009847284638BD43691868C043C00F70478A
:1080000070470020704710B51421044600F01CFC96
:10801000204610BDFCF745B87FB5164600224260E9
:10802000029203925A1C04460D4608D04FF47A720D
:10803000B3FBF2F1029102FB11314A4303926069F2
:108040000823009341F205026B4440F6FF7100687B
:10805000FEF70EFB002808DB606900233246294644
:108060000068FEF72DFB002804DAFEF785FC0368A4
:108070006360002004B070BD10B5036804469B68BF
:108080009847A368013BA3602BB923682046DB68AF
:10809000BDE81040184710BD70B504464D69054B4A
:1080A00044F8043B8C3506460FCD0FC42B68237073
:1080B000304670BD4CC60D0010B54369B3F886203C
:1080C000B3F884309A42044605D06269B2F884302D
:1080D0001344187910BD03681B6998470028F4D130
:1080E0004FF0FF3010BD10B54369B3F88620B3F8E8
:1080F00084309A42044608D06269B2F88430591C30
:108100001344A2F88410187910BD03681B699847BE
:108110000028F1D14FF0FF3010BDF8B54369174684
:10812000B3F88620B3F884309A4205460E4606D14D
:1081300003681B69984710B94FF0FF3414E0696970
:10814000B1F88430B1F88640E41ABC4228BF3C46FE
:10815000194422460431304601F086FB6A69B2F8C0
:1081600084302344A2F884302046F8BD2DE9F04342
:108170009846036893B0DB6A0D4606461746984753
:1081800012AB002443F8484D224621462846FEF70C
:1081900047F9814600283DD1009B002B56D05B69F2
:1081A000002B53D006A8FFF773FC009B5C69637833
:1081B000022B01D1211D13E00A2B14D111224946B3
:1081C00001A801F05CFBA36833BBE36823BB4FF657
:1081D000FF702569FEF7B4F985421DD104F1140141
:1081E00006A8FFF7A5FC06A8FFF772FC00282DD013
:1081F000336807ADD3F82090184B0C930FCD0DAC1E
:108200000FC42B6823703A4643460CA93046C84732
:1082100081461BE0A14619E004F1080301AD1834C2
:10822000186859682A4603C20833A3421546F7D195
:10823000062301A90CA80DAD8DF81430FFF736FC0C
:108240000FCD07AC0FC42B682370CCE70098FEF766
:10825000DFF8484613B0BDE8F08300BF4CC60D0000
:1082600042690023A2F884304269A2F88630704740
:108270002DE9F0411E4603680C468AB0DB6A0546CC
:1082800017469847237DD5F81480042B0CBF022095
:108290000A2006220121FEF723FAC8F800006B69C4
:1082A0001B68002B18DB2846FFF7DAFFD6B1002346
:1082B00003A9F0B20393ADF81030FEF7E9F858B90E
:1082C00068690623009341F20B0203AB40F6FF718D
:1082D0000068FEF7CDF928B12B682846DB6A002438
:1082E00098473BE01C263246002103A801F0C7FA5C
:1082F000237D8DF80C60042B0CD1022338468DF8B9
:108300000D30FEF72DF9ADF80E006068FEF718F994
:10831000049013E00A2338468DF80D30FEF720F95B
:1083200005AEADF80E00231D04F114071868596856
:10833000324603C20833BB421646F7D16B691C2292
:1083400003A91868FEF7A4F90028C5D104340FCC9E
:108350006D698C350FC523682B70012420460AB047
:10836000BDE8F08110B5436904461868002801DBB8
:10837000FEF786F963694FF0FF321A6060691122D7
:1083800000218C3001F07BFA2046BDE81040FFF759
:1083900067BF000030B54269B2F886308BB0044642
:1083A0001BB1B2F884209A4240D063691868002853
:1083B0003FDBB3F886507F2D3BD8191DC5F18002F5
:1083C00008232944FEF76CF900280CDD6369B3F833
:1083D00086200AB9A3F884206269B2F8863018446E
:1083E000A2F8860025E0FEF7C7FA03680B2B20D021
:1083F000FEF7C2FA03680B2B1BD020230025029343
:108400000395FEF7B9FA036801930E4B009302AA95
:108410002B460D493220FEF7A3F963691868FEF771
:108420002FF963694FF0FF321A6002E0FFF718FF7F
:10843000BBE76269B2F88630B2F88400181A0BB054
:1084400030BD00BF83C70D007CC70D0043691868AD
:10845000C043C00F704710B5002304460160A0F868
:108460008430A0F886308830FFF712FB204610BD1C
:108470004FF47A7270B500238260144A4360026040
:10848000436183610446A0200E46FBF706FE0546C5
:1084900010B13146FFF7DFFF1420FBF7FEFD034666
:1084A00028B1012242608260094A02600561A06928
:1084B0006561A36128B14368013B43600BB9FFF7D5
:1084C000DBFD2046FFF7CCFE204670BD38C70D000F
:1084D0001CC70D0010B54FF0FF310446FFF7C8FF71
:1084E000204610BD10B504460068002801DBFEF7E9
:1084F000C7F8204610BD10B504692046FFF7F2FF0B
:1085000024B12046BDE81040FBF7CBBD10BD0022D2
:1085100011464068FEF788B9002211464068FEF710
:10852000A3B9002211464068FEF7AEB900224068A8
:10853000FEF7A2B9002281F001014068FEF78CB974
:1085400000231A4619464068FEF77EB900231A46F2
:1085500019464068FEF770B9002211464068FEF7E0
:1085600053B9002202214068FEF756B900231A468B
:108570004068FEF741B90000024B04225A60024AEB
:108580001A607047E8E603209CC70D0000231A46D6
:108590004068FEF731B9002202214068FEF73CB97D
:1085A000002211464068FEF72FB9002211464068AC
:1085B000FEF73AB900231A4619464068FEF73CB95F
:1085C00000231A4619464068FEF73EB9002281F0A2
:1085D00001014068FEF740B900224068FEF74CB93F
:1085E000002211464068FEF74FB90022114640684C
:1085F000FEF73AB92DE9F043002495B016460D4632
:108600000746FFF745FA214620220CA8009401F006
:1086100036F940230C9321466B460CAA3046FDF7F1
:10862000FFFE0446002844D1024601216868FEF797
:10863000FBF80221804622466868FEF7F5F8009EA6
:1086400081462146002E34D0002932D17368022B96
:1086500002D00A2B09D02AE0B8F1000F27D07169A7
:1086600038460431FFF764FA20E0B9F1000F1ED05C
:108670007469112201A801F002F906238DF8143063
:1086800001AD04F108031834186859682A4603C27A
:108690000833A3421546F7D101A906A807ADFFF795
:1086A00005FA0FCD3C1D0FC42B6823700121F6691C
:1086B000C8E70098FDF7ACFE384615B0BDE8F0837A
:1086C000024B034A1A6000225A607047F0E603200A
:1086D000D0C70D0010B5044600F048F8FEF7A8F921
:1086E00028B1A4F10B03022B01D8002010BD00F02B
:1086F00077F8FFF785FB08B1012CF6D9FFF708FBE7
:10870000FFF702FB18B1A4F10903012BEDD9232CCB
:108710008CBF0020012010BD232838B504460D462B
:108720000AD8FF2908D0FFF7D5FF28B129462046EF
:10873000BDE83840FDF784BE38BD38B504460D4667
:10874000FDF786FEFF2810D0062804D84D2323FA13
:1087500000F0C30709D42046FFF7BCFF28B1294623
:108760002046BDE83840FDF77BBE38BD38B50B4D1F
:10877000296811F001040FD12846FBF796FC58B187
:1087800021460748FEF746F92846FBF793FC054AC1
:108790000549034800F04AF8014838BD04E70320C2
:1087A000F8E603201CE10320056A0D0070B50446BD
:1087B00014252A46094E002101F061F82580202564
:1087C0003146A5602561284600F040F831466060DA
:1087D000284600F03BF8E060204670BDFCC70D0065
:1087E00030B50E4D296811F0010487B013D1284629
:1087F000FBF75BFC78B101A8FFF7D8FF01AA21467F
:108800000748FFF7EBFA2846FBF754FC054A0649F0
:10881000034800F00BF8024807B030BD0CE7032016
:1088200010E703201CE10320857D0D000B46014667
:10883000184600F00FBF0000024B1868BFF35F8FAF
:10884000704700BF24E70320FBF72BBC00F000B803
:1088500010B5002814BF044601242046FEF754F842
:1088600020B9FFF7E9FF08B18047F6E710BDC368FC
:108870009A68C26002B1506042685A600A689042C9
:1088800001D10B6005E04268916888420CBF93609B
:10889000D3609860436070478368DA68826002B191
:1088A000506042685A600A68904201D10B6005E04E
:1088B0004268D16888420CBFD3609360D86043603F
:1088C000704703782BB943685B68984201D1C3684D
:1088D0000CE083681BB1DA6842B11346FBE74368DA
:1088E0009A68824202D118465B68F9E718467047D9
:1088F000C36823B118469B68002BFBD10AE043688C
:10890000DA68824202D118465B68F9E7C26893428E
:1089100018BF18467047FFF7D4BF2DE9F0471F4630
:1089200003F1040900230C464A608B60CB600B7096
:1089300068B19742916001D179600CE0BB689A42BE
:1089400008BFB9604FF001084FF0000A17E0D1608E
:10895000FB689A42F6D1FC60F4E766683278002A38
:108960003AD17568AB689E421FD1EB685BB11A784B
:108970004AB986F8008083F800802A702C467B680C
:108980009C42EAD128E0F3689C4204D14946304633
:10899000FFF76DFF34466368494683F80080284638
:1089A00085F800A0FFF778FF14E013B11A78002AC9
:1089B000DFD0B3689C4204D149463046FFF76CFFD4
:1089C00034466368494683F80080284685F800A04D
:1089D000FFF74DFF2546D1E701221A70BDE8F08769
:1089E00008B5FDF7B9FF0000184B1A68D1075CBF46
:1089F00001221A60164B1A68D2075CBF01221A6066
:108A0000144B1A68D0075CBF01221A60124B1A6817
:108A1000D1075CBF01221A60104B1A68D2075CBFF5
:108A200001221A600E4B1A68D0075CBF01221A603F
:108A30000C4B1A68D1075CBF01221A600A4B1A68F6
:108A4000D2075CBF01221A60704700BF44E70320D1
:108A500040E703203CE7032038E7032034E7032006
:108A600030E703202CE7032028E70320244B1A6873
:108A7000D0075CBF01221A60224B1A68D1075CBF85
:108A800001221A60204B1A68D2075CBF01221A60CB
:108A90001E4B1A68D0075CBF01221A601C4B1A6873
:108AA000D1075CBF01221A601A4B1A68D2075CBF5B
:108AB00001221A60184B1A68D0075CBF01221A60A5
:108AC000164B1A68D1075CBF01221A60144B1A6852
:108AD000D2075CBF01221A60124B1A68D0075CBF34
:108AE00001221A60104B1A68D1075CBF01221A607C
:108AF0000E4B1A68D2075CBF01221A60704700BF94
:108B000074E7032070E703206CE7032068E7032085
:108B100064E7032060E703205CE7032058E70320B5
:108B200054E7032050E703204CE7032048E70320E5
:108B3000244B1A68D0075CBF01221A60224B1A68C6
:108B4000D1075CBF01221A60204B1A68D2075CBFB4
:108B500001221A601E4B1A68D0075CBF01221A60FE
:108B60001C4B1A68D1075CBF01221A601A4B1A68A5
:108B7000D2075CBF01221A60184B1A68D0075CBF8D
:108B800001221A60164B1A68D1075CBF01221A60D5
:108B9000144B1A68D2075CBF01221A60124B1A6884
:108BA000D0075CBF01221A60104B1A68D1075CBF66
:108BB00001221A600E4B1A68D2075CBF01221A60AC
:108BC000704700BFA4E70320A0E703209CE7032031
:108BD00098E7032094E7032090E703208CE7032025
:108BE00088E7032084E7032080E703207CE7032055
:108BF00078E70320184B1A68D1075CBF01221A607E
:108C0000164B1A68D2075CBF01221A60144B1A680F
:108C1000D0075CBF01221A60124B1A68D1075CBFF3
:108C200001221A60104B1A68D2075CBF01221A6039
:108C30000E4B1A68D0075CBF01221A600C4B1A68F1
:108C4000D1075CBF01221A600A4B1A68D2075CBFC9
:108C500001221A60704700BFC4E70320C0E7032069
:108C6000BCE70320B8E70320B4E70320B0E7032004
:108C7000ACE70320A8E7032081F0004102E000BF39
:108C800083F0004330B54FEA41044FEA430594EACC
:108C9000050F08BF90EA020F1FBF54EA000C55EA07
:108CA000020C7FEA645C7FEA655C00F0E2804FEAD8
:108CB0005454D4EB5555B8BF6D420CDD2C4480EABA
:108CC000020281EA030382EA000083EA010180EAEA
:108CD000020281EA0303362D88BF30BD11F0004F38
:108CE0004FEA01314FF4801C4CEA113102D040426E
:108CF00061EB410113F0004F4FEA03334CEA1333A9
:108D000002D0524263EB430394EA050F00F0A780C0
:108D1000A4F10104D5F1200E0DDB02FA0EFC22FABB
:108D200005F2801841F1000103FA0EF2801843FAAF
:108D300005F359410EE0A5F120050EF1200E012AA0
:108D400003FA0EFC28BF4CF0020C43FA05F3C018DE
:108D500051EBE37101F0004507D54FF0000EDCF157
:108D6000000C7EEB00006EEB0101B1F5801F1BD300
:108D7000B1F5001F0CD349085FEA30004FEA3C0C04
:108D800004F101044FEA445212F5800F80F09A80FA
:108D9000BCF1004F08BF5FEA500C50F1000041EBFE
:108DA000045141EA050130BD5FEA4C0C404141EB02
:108DB000010111F4801FA4F10104E9D191F0000F29
:108DC00004BF01460020B1FA81F308BF2033A3F1AC
:108DD0000B03B3F120020CDA0C3208DD02F1140CA3
:108DE000C2F10C0201FA0CF021FA02F10CE002F1DE
:108DF0001402D8BFC2F1200C01FA02F120FA0CFCD7
:108E0000DCBF41EA0C019040E41AA2BF01EB04511F
:108E1000294330BD6FEA04041F3C1CDA0C340EDC1D
:108E200004F11404C4F1200220FA04F001FA02F360
:108E300040EA030021FA04F345EA030130BDC4F11E
:108E40000C04C4F1200220FA02F001FA04F340EA13
:108E50000300294630BD21FA04F0294630BD94F0C4
:108E6000000F83F4801306BF81F480110134013DAB
:108E70004EE77FEA645C18BF7FEA655C29D094EA1C
:108E8000050F08BF90EA020F05D054EA000C04BF9A
:108E90001946104630BD91EA030F1EBF0021002085
:108EA00030BD5FEA545C05D14000494128BF41F024
:108EB000004130BD14F580043CBF01F5801130BD88
:108EC00001F0004545F0FE4141F470014FF0000013
:108ED00030BD7FEA645C1ABF194610467FEA655CC4
:108EE0001CBF0B46024650EA013406BF52EA033566
:108EF00091EA030F41F4002130BD00BF90F0000F54
:108F000004BF0021704730B54FF4806404F132048F
:108F10004FF000054FF0000150E700BF90F0000F48
:108F200004BF0021704730B54FF4806404F132046F
:108F300010F0004548BF40424FF000013EE700BF3F
:108F400042004FEAE2014FEA31014FEA02701FBFCF
:108F500012F07F4393F07F4F81F06051704792F0A1
:108F6000000F14BF93F07F4F704730B54FF460741B
:108F700001F0004521F0004120E700BF50EA010266
:108F800008BF704730B54FF000050AE050EA010213
:108F900008BF704730B511F0004502D5404261EB83
:108FA00041014FF4806404F132045FEA915C3FF4C4
:108FB000DCAE4FF003025FEADC0C18BF03325FEA5D
:108FC000DC0C18BF033202EBDC02C2F1200300FA12
:108FD00003FC20FA02F001FA03FE40EA0E0021FA37
:108FE00002F11444C1E600BF70B54FF0FF0C4CF421
:108FF000E06C1CEA11541DBF1CEA135594EA0C0FD7
:1090000095EA0C0F00F0DEF82C4481EA030621EA11
:109010004C5123EA4C5350EA013518BF52EA03354C
:1090200041F4801143F4801338D0A0FB02CE4FF0FE
:109030000005E1FB02E506F00042E0FB03E54FF02E
:109040000006E1FB03569CF0000F18BF4EF0010E26
:10905000A4F1FF04B6F5007F64F5407404D25FEA22
:109060004E0E6D4146EB060642EAC62141EA5551D5
:109070004FEAC52040EA5E504FEACE2EB4F1FD0C17
:1090800088BFBCF5E06F1ED8BEF1004F08BF5FEA95
:10909000500E50F1000041EB045170BD06F0004647
:1090A00046EA010140EA020081EA0301B4EB5C04F4
:1090B000C2BFD4EB0C0541EA045170BD41F48011EC
:1090C0004FF0000E013C00F3AB8014F1360FDEBF11
:1090D000002001F0004170BDC4F10004203C35DAED
:1090E0000C341BDC04F11404C4F1200500FA05F370
:1090F00020FA04F001FA05F240EA020001F0004211
:1091000021F0004110EBD37021FA04F642EB060186
:109110005EEA430E08BF20EAD37070BDC4F10C04B0
:10912000C4F1200500FA04F320FA05F001FA04F274
:1091300040EA020001F0004110EBD37041F1000160
:109140005EEA430E08BF20EAD37070BDC4F120056B
:1091500000FA05F24EEA020E20FA04F301FA05F2D3
:1091600043EA020321FA04F001F0004121FA04F27B
:1091700020EA020000EBD3705EEA430E08BF20EA4B
:10918000D37070BD94F0000F0FD101F00046400085
:1091900041EB010111F4801F08BF013CF7D041EA07
:1091A000060195F0000F18BF704703F0004652000B
:1091B00043EB030313F4801F08BF013DF7D043EADC
:1091C0000603704794EA0C0F0CEA135518BF95EA92
:1091D0000C0F0CD050EA410618BF52EA4306D1D119
:1091E00081EA030101F000414FF0000070BD50EA38
:1091F000410606BF1046194652EA430619D094EAC2
:109200000C0F02D150EA013613D195EA0C0F05D1AB
:1092100052EA03361CBF104619460AD181EA0301FF
:1092200001F0004141F0FE4141F470014FF00000B7
:1092300070BD41F0FE4141F4780170BD70B54FF052
:10924000FF0C4CF4E06C1CEA11541DBF1CEA1355D2
:1092500094EA0C0F95EA0C0F00F0A7F8A4EB0504B4
:1092600081EA030E52EA03354FEA013100F08880AB
:109270004FEA03334FF0805545EA131343EA126374
:109280004FEA022245EA111545EA10654FEA002629
:109290000EF000419D4208BF964244F1FD0404F5E2
:1092A000407402D25B084FEA3202B61A65EB03053E
:1092B0005B084FEA32024FF480104FF4002CB6EBFB
:1092C000020E75EB030E22BFB61A754640EA0C007B
:1092D0005B084FEA3202B6EB020E75EB030E22BFBB
:1092E000B61A754640EA5C005B084FEA3202B6EBFC
:1092F000020E75EB030E22BFB61A754640EA9C00BB
:109300005B084FEA3202B6EB020E75EB030E22BF8A
:10931000B61A754640EADC0055EA060E18D04FEA48
:10932000051545EA16754FEA06164FEAC30343EAE8
:1093300052734FEAC2025FEA1C1CC0D111F4801FB5
:109340000BD141EA00014FF000004FF0004CB6E7AE
:1093500011F4801F04BF01430020B4F1FD0C88BF4D
:10936000BCF5E06F3FF6AFAEB5EB030C04BFB6EB58
:10937000020C5FEA500C50F1000041EB045170BD4B
:109380000EF0004E4EEA113114EB5C04C2BFD4EB78
:109390000C0541EA045170BD41F480114FF0000EFC
:1093A000013C90E645EA060E8DE60CEA135594EA78
:1093B0000C0F08BF95EA0C0F3FF43BAF94EA0C0F7B
:1093C0000AD150EA01347FF434AF95EA0C0F7FF4F0
:1093D00025AF104619462CE795EA0C0F06D152EA44
:1093E00003353FF4FDAE1046194622E750EA410628
:1093F00018BF52EA43067FF4C5AE50EA41047FF439
:109400000DAF52EA43057FF4EBAE12E74FF0FF3C9D
:1094100006E000BF4FF0010C02E000BF4FF0010C6E
:109420004DF804CD4FEA410C7FEA6C5C4FEA430CE7
:1094300018BF7FEA6C5C1BD001B050EA410C0CBF36
:1094400052EA430C91EA030F02BF90EA020F002098
:10945000704710F1000F91EA030F58BF994208BFFF
:1094600090422CBFD8176FEAE37040F001007047BC
:109470004FEA410C7FEA6C5C02D150EA013C07D113
:109480004FEA430C7FEA6C5CD6D152EA033CD3D05E
:109490005DF8040B704700BF8446104662468C4658
:1094A0001946634600E000BF01B5FFF7B7FF00288B
:1094B00048BF10F1000F01BD4DF808EDFFF7F4FFB4
:1094C0000CBF012000205DF808FB00BF4DF808ED3F
:1094D000FFF7EAFF34BF012000205DF808FB00BF62
:1094E0004DF808EDFFF7E0FF94BF012000205DF884
:1094F00008FB00BF4DF808EDFFF7CEFF94BF012039
:1095000000205DF808FB00BF4DF808EDFFF7C4FF31
:1095100034BF012000205DF808FB00BF4FEA410284
:1095200012F5001215D211D56FF47873B3EB6252B5
:1095300012D94FEAC12343F0004343EA505311F0DC
:10954000004F23FA02F018BF404270474FF000006E
:10955000704750EA013005D111F0004008BF6FF0AC
:10956000004070474FF00000704700BF4A0011D222
:1095700012F5001211D20DD56FF47873B3EB62526D
:109580000ED44FEAC12343F0004343EA505323FA79
:1095900002F070474FF00000704750EA013002D1EE
:1095A0004FF0FF3070474FF0000070474FEA410224
:1095B000B2F1E04324BFB3F5001CDCF1FE5C0DD931
:1095C00001F0004C4FEAC0024CEA5070B2F1004F7B
:1095D00040EB830008BF20F00100704711F0804F7E
:1095E00021D113F13872BCBF01F00040704741F443
:1095F00080114FEA5252C2F11802C2F1200C10FA47
:109600000CF320FA02F018BF40F001004FEAC1232A
:109610004FEAD32303FA0CFC40EA0C0023FA02F3CE
:109620004FEA4303CCE77FEA625307D150EA0133A4
:109630001EBF4FF0FE4040F44000704701F0004074
:1096400040F0FE4040F40000704700BF002100F0F1
:10965000EBBF000010B5054C13462CB10A4601467D
:109660000220AFF3008010BD204610BD00000000B6
:1096700038B5074B1C68E36B05461BB92420FDF782
:1096800043F9E063E16B2846BDE8384000F002B8DA
:1096900094E003202DE9F0410C46804601F0E6FD00
:1096A00021460746404601F0E5FD466906F26C7624
:1096B000B307044605D1642296FBF2F302FB136361
:1096C0004BB94FF4C87596FBF5F305FB1365B5FA76
:1096D00085F35B0900E001235F4A302505FB032584
:1096E00001F0DAF801F0DAF85C4B1B68F3B17B6843
:1096F0009E4205D13968D8F80030FA6941B90AE0CC
:10970000304601F021F80028F4D14FF0FF330DE08E
:10971000934208DB01E0934207DABA6B9342ACBF95
:109720000023012302E0002300E001232362236AD7
:10973000012B0CBFF96B396A4FF461633C2091FB3C
:10974000F3F603FB1613616893FBF0F200FB123093
:109750002368891AA26861601B1A921B3B2B236045
:10976000A26003DD013161603C3B04E0002B03DAC1
:10977000013961603C33236063683B2B03DD0132B8
:10978000A2603C3B04E0002B03DA013AA2603C33C8
:109790006360A368172B22DDE2690132E261A269EE
:1097A0000132062AC8BF0022A261E268183B0132DA
:1097B000A3602369E26055F823108A4246DD013335
:1097C0000C2B0CBF63692361A2EB0102E26001BFB5
:1097D000013300222261636108BFE26136E0002BA1
:1097E00034DAE269013AE261A269013A48BF06222D
:1097F000A261E2681833013AE260A36032BB2369D8
:10980000013B01D423611DE00B23236163695A1ED0
:1098100012F0030F626103F26B7305D1642193FBB5
:10982000F1F201FB12324AB94FF4C87193FBF1F225
:1098300001FB1233B3FA83F35B0900E0012303F564
:10984000B673E361236955F82330E36001F025F82E
:109850002046BDE8F08100BF68C90D00E4E70320A1
:109860000048704798E0032010B5431E0A44914217
:1098700004D011F8014B03F8014FF8E710BD024482
:109880000346934202D003F8011BFAE77047000039
:1098900038B5124B1C68A36B0546D3B91820FDF7E9
:1098A00033F843F20E33A06303804AF6CD3343808E
:1098B00041F2342383804EF26D63C3804DF6EC6336
:1098C0000381052343810B23838101220023C0E907
:1098D0000423A36B00221D615A6138BD94E003206C
:1098E000C9B2034610F8012B1AB19142F9D11846BA
:1098F000704700290CBF18460020704710F8012B54
:1099000011F8013B012A28BF9A42F7D0D01A7047BC
:10991000034611F8012B03F8012B002AF9D17047F7
:10992000024B0146186800F003B800BF94E0032022
:1099300070B5064608460C4600F00DF8451C294651
:109940003046FDF711F8064618B12A462146FFF7C2
:109950008BFF304670BD034613F8012B002AFBD164
:10996000181A0138704730B582B1451E013915F813
:10997000013F11F8014FA34206D1EC431444E042E9
:1099800001D0002BF3D11C46181B30BD104630BD52
:1099900010B5034642B111F8014B03F8014B013AEF
:1099A000002CF7D11A4400E010BD934202D003F816
:1099B000014BFAE710BDF0B5037863B90B78002BC3
:1099C00018BF0020F0BD15F8012F62B114F8017F17
:1099D00097423046F7D00346461C007810B14D1E22
:1099E0005C1EF0E7F0BD1846F0BD70B504460D46AC
:1099F00045EC104B164601F09BFF51EC100B7EB16D
:109A0000C5F30A53C3F16B03002B09DD1B0503F1FA
:109A10007F55002405F5401522462B46FFF7E4FA52
:109A200070BD0000000000002DE9F04F9DB0002344
:109A300002900C46139218934FF0000A4FF0000B5F
:109A40001791179B1A780D2A05D8092A13D2002AD4
:109A500000F0AC8112E02B2A04D02D2A04D0202A59
:109A60000CD108E0002200E001220C925A1C17924F
:109A70005B782BB99AE101331793E2E700230C934B
:109A8000179D2B78302B5CD16B78582B01D0782B1D
:109A90004CD10C9B019318AB0093A94A029819ABC7
:109AA00017A901F0CCF810F00706044600F08785EE
:109AB000062E05D10135002317950C9300F07FBDCC
:109AC000189A3AB135211AA802F01FF8189902988D
:109AD00001F09DFC062E22D8DFE806F0040D0818E0
